:020000040000fa
:080000000002040000000000f2
:020000040000fa
:04000800fa020000f8
:020000040000fa
:04000c00fa020000f4
:020000040000fa
:04001000fa020000f0
:020000040000fa
:04001400fa020000ec
:020000040000fa
:04001800fa020000e8
:020000040000fa
:04001c00fa020000e4
:020000040000fa
:04002000fa020000e0
:020000040000fa
:04002400fa020000dc
:020000040000fa
:04002800fa020000d8
:020000040000fa
:04002c00fa020000d4
:020000040000fa
:04003000fa020000d0
:020000040000fa
:04003400fa020000cc
:020000040000fa
:04003800fa020000c8
:020000040000fa
:04003c00fa020000c4
:020000040000fa
:04004000fa020000c0
:020000040000fa
:04004400fa020000bc
:020000040000fa
:04004800fa020000b8
:020000040000fa
:04004c00fa020000b4
:020000040000fa
:04005000fa020000b0
:020000040000fa
:04005400fa020000ac
:020000040000fa
:04005800fa020000a8
:020000040000fa
:04005c00fa020000a4
:020000040000fa
:04006000fa020000a0
:020000040000fa
:04006400fa0200009c
:020000040000fa
:04006800fa02000098
:020000040000fa
:04006c00fa02000094
:020000040000fa
:04007000fa02000090
:020000040000fa
:04007400fa0200008c
:020000040000fa
:04007800fa02000088
:020000040000fa
:04007c00fa02000084
:020000040000fa
:04008000fa02000080
:020000040000fa
:04008400fa0200007c
:020000040000fa
:04008800fa02000078
:020000040000fa
:04008c00fa02000074
:020000040000fa
:04009000fa02000070
:020000040000fa
:04009400fa0200006c
:020000040000fa
:04009800fa02000068
:020000040000fa
:04009c00fa02000064
:020000040000fa
:0400a000fa02000060
:020000040000fa
:0400a400fa0200005c
:020000040000fa
:0400a800fa02000058
:020000040000fa
:0400ac00fa02000054
:020000040000fa
:0400b000fa02000050
:020000040000fa
:0400b400fa0200004c
:020000040000fa
:0400b800fa02000048
:020000040000fa
:0400bc00fa02000044
:020000040000fa
:0400c000fa02000040
:020000040000fa
:0400c400fa0200003c
:020000040000fa
:0400c800fa02000038
:020000040000fa
:0400cc00fa02000034
:020000040000fa
:0400d000fa02000030
:020000040000fa
:0400d400fa0200002c
:020000040000fa
:0400d800fa02000028
:020000040000fa
:0400dc00fa02000024
:020000040000fa
:0400e000fa02000020
:020000040000fa
:0400e400fa0200001c
:020000040000fa
:0400e800fa02000018
:020000040000fa
:0400ec00fa02000014
:020000040000fa
:0400f000fa02000010
:020000040000fa
:0400f400fa0200000c
:020000040000fa
:0400f800fa02000008
:020000040000fa
:0400fc00fa02000004
:020000040000fa
:04010000fa020000ff
:020000040000fa
:04010400fa020000fb
:020000040000fa
:04010800fa020000f7
:020000040000fa
:04010c00fa020000f3
:020000040000fa
:04011000fa020000ef
:020000040000fa
:04011400fa020000eb
:020000040000fa
:04011800fa020000e7
:020000040000fa
:04011c00fa020000e3
:020000040000fa
:04012000fa020000df
:020000040000fa
:04012400fa020000db
:020000040000fa
:04012800fa020000d7
:020000040000fa
:04012c00fa020000d3
:020000040000fa
:04013000fa020000cf
:020000040000fa
:04013400fa020000cb
:020000040000fa
:04013800fa020000c7
:020000040000fa
:04013c00fa020000c3
:020000040000fa
:04014000fa020000bf
:020000040000fa
:04014400fa020000bb
:020000040000fa
:04014800fa020000b7
:020000040000fa
:04014c00fa020000b3
:020000040000fa
:04015000fa020000af
:020000040000fa
:04015400fa020000ab
:020000040000fa
:04015800fa020000a7
:020000040000fa
:04015c00fa020000a3
:020000040000fa
:04016000fa0200009f
:020000040000fa
:04016400fa0200009b
:020000040000fa
:04016800fa02000097
:020000040000fa
:04016c00fa02000093
:020000040000fa
:04017000fa0200008f
:020000040000fa
:04017400fa0200008b
:020000040000fa
:04017800fa02000087
:020000040000fa
:04017c00fa02000083
:020000040000fa
:04018000fa0200007f
:020000040000fa
:04018400fa0200007b
:020000040000fa
:04018800fa02000077
:020000040000fa
:04018c00fa02000073
:020000040000fa
:04019000fa0200006f
:020000040000fa
:04019400fa0200006b
:020000040000fa
:04019800fa02000067
:020000040000fa
:04019c00fa02000063
:020000040000fa
:0401a000fa0200005f
:020000040000fa
:0401a400fa0200005b
:020000040000fa
:0401a800fa02000057
:020000040000fa
:0401ac00fa02000053
:020000040000fa
:0401b000fa0200004f
:020000040000fa
:0401b400fa0200004b
:020000040000fa
:0401b800fa02000047
:020000040000fa
:0401bc00fa02000043
:020000040000fa
:0401c000fa0200003f
:020000040000fa
:0401c400fa0200003b
:020000040000fa
:0401c800fa02000037
:020000040000fa
:0401cc00fa02000033
:020000040000fa
:0401d000fa0200002f
:020000040000fa
:0401d400fa0200002b
:020000040000fa
:0401d800fa02000027
:020000040000fa
:0401dc00fa02000023
:020000040000fa
:0401e000fa0200001f
:020000040000fa
:0401e400fa0200001b
:020000040000fa
:0401e800fa02000017
:020000040000fa
:0401ec00fa02000013
:020000040000fa
:0401f000fa0200000f
:020000040000fa
:0401f400fa0200000b
:020000040000fa
:0401f800fa02000007
:020000040000fa
:0401fc00fa02000003
:020000040000fa
:04020000fa020000fe
:020000040000fa
:04020400fa020000fa
:020000040000fa
:04020800fa020000f6
:020000040000fa
:04020c00fa020000f2
:020000040000fa
:04021000fa020000ee
:020000040000fa
:04021400fa020000ea
:020000040000fa
:04021800fa020000e6
:020000040000fa
:04021c00fa020000e2
:020000040000fa
:04022000fa020000de
:020000040000fa
:04022400fa020000da
:020000040000fa
:04022800fa020000d6
:020000040000fa
:04022c00fa020000d2
:020000040000fa
:04023000fa020000ce
:020000040000fa
:04023400fa020000ca
:020000040000fa
:04023800fa020000c6
:020000040000fa
:04023c00fa020000c2
:020000040000fa
:04024000fa020000be
:020000040000fa
:04024400fa020000ba
:020000040000fa
:04024800fa020000b6
:020000040000fa
:04024c00fa020000b2
:020000040000fa
:04025000fa020000ae
:020000040000fa
:04025400fa020000aa
:020000040000fa
:04025800fa020000a6
:020000040000fa
:04025c00fa020000a2
:020000040000fa
:04026000fa0200009e
:020000040000fa
:04026400fa0200009a
:020000040000fa
:04026800fa02000096
:020000040000fa
:04026c00fa02000092
:020000040000fa
:04027000fa0200008e
:020000040000fa
:04027400fa0200008a
:020000040000fa
:04027800fa02000086
:020000040000fa
:04027c00fa02000082
:020000040000fa
:04028000fa0200007e
:020000040000fa
:100400008f0221000eff2c000e018800000000006a
:10041000000020000000e000020032000001200087
:100420002002880014000700740007000000e000ac
:1004300003003a00004f20000100200002003700b6
:100440000000200001002000810f70000100320038
:100450000f000700000020000000e0000200320052
:100460000000020000000000000302000000000085
:100470000040da000000fe00200020000000e00044
:1004800002003200100020009001880000000600e9
:10049000a1028800800478000000eb001f003700f4
:1004a000e284440054a0b4009905ba00e2844400f8
:1004b00054a0b4009906ba00e284440054a0b400e9
:1004c0000006eb00476fde00fd07b200ae018800ba
:1004d000636ce10003003a000ad801000000eb0061
:1004e0000e003700606ce10008003a00004deb00a0
:1004f0000a05e800020039003420ec000af0a000f0
:100500008b05e900f9ff3e00040037006168e10057
:10051000010032000086eb000b00070019c7ba008b
:100520000e04e0001905ba0003003a000a00e000da
:10053000dbff3a0000000600fe07b200ae028800b2
:100540008a047800f5ff37000cd0a300e20f4d00bd
:100550001c00390089027800354dba000a05e80010
:10056000020039003420ec000af0a0008b05e900fd
:100570000f003200254dba000a05e80002003900dc
:100580003420ec000af0a0008b05e90008003200de
:100590000c00e0000600320015cdba000a05e800a4
:1005a000020039003420ec000af0a0008b05e900bd
:1005b0008984e80054a0b4000b00e000e2ff3a0098
:1005c000000006009902ba00055d78008b05e9007d
:1005d000f7ff3200c82ade00055d78008b05e900d0
:1005e000f3ff32000c00e000f1ff320019ddba0029
:1005f000eeff37000040da000000fe0000000500ba
:020000040000fa
:100600000200fa00b10007000040eb00004f780044
:10061000060037001e40780008000700007c22001a
:1006200091002000e00007001e4fe8001e40780007
:10063000e14f4000f7ff3a00f3ff37000200fa00f5
:10064000004f78009e40780061c060000080fb0091
:10065000610060004a00dd00a2708000f1bf2f0041
:100660008100610001007000a07088001e80fb0006
:100670000000d10000407800614060000080fb0075
:10068000610060004b00dd00a2708000f17f2f0050
:100690008100610001007000a07088001e80fb00d6
:1006a0004200de0000407800614060000080fb00f6
:1006b000610060004c00dd00a2708000f1ff2e00a0
:1006c0008100610001007000a07088001e80fb00a6
:1006d0004300de0000407800614060000080fb00c5
:1006e000610060004d00dd00a2708000f1ff2d0070
:1006f0008100610001007000a07088001e80fb0076
:100700004400de0000407800614060000080fb0093
:10071000610060004a00dd0022708000f1bf2f0000
:100720008100610001007000207088001e80fb00c5
:100730004500de0000407800614060000080fb0062
:10074000610060004700dd0022708000f1f72f009b
:100750008100610001007000207088001e80fb0095
:100760004600de0000407800614060000080fb0031
:10077000610060004e00dd00a2708000f1ff2b00e0
:100780008100610001007000a07088001e80fb00e5
:100790004700de0000407800614060000080fb0000
:1007a0004f00dd00a2708000f1ff27008100610092
:1007b00001007000a07088000080fa0000000600b0
:1007c0000000fa00154ea800006c2c00d102200099
:1007d00075000700156ea800006c2c00d1022000e7
:1007e00071000700158ea800006c2c00d1022000bb
:1007f0006d00070015aea800006c2c00d10220008f
:1008000069000700054ea800006c2c00d1022000f2
:100810006500070004eea800006c2c00d102200047
:100820006100070015cea800006c2c00d10220004a
:100830005d00070015eea800006c2c00d10220001e
:1008400059000700154ea900006c2c00d1022000b1
:1008500055000700156ea900006c2c00d102200085
:1008600051000700158ea900006c2c00d102200059
:100870004d00070015aea900006c2c00d10220002d
:1008800049000700054ea900006c2c00d102200091
:100890004500070004eea900006c2c00d1022000e6
:1008a0004100070015cea900006c2c00d1022000e9
:1008b0003d00070015eea900006c2c00d1022000bd
:1008c000390007000080fa00000006000000fa006e
:1008d0000d000700114ea900116ea900118ea9008c
:1008e00011aea900014ea90000eea90011cea90089
:1008f00011eea900c3e8a8000000000000000000fd
:100900000080fa00000006000000fa00100023003a
:10091000203a88004827ef004e27ef00d000200043
:10092000303a88006027ef006227ef006427ef006d
:100930006627ef006a27ef006c27ef0032002000e7
:1009400080072000a109200033742000804978002e
:10095000814978008249780012002000600420005c
:1009600071052000237420008049780081497800b7
:100970008249780000000000103a800061006000a9
:100980000000e000fcff3a0000000000113a800087
:1009900000022000008060000000e000fbff320049
:0809a0000080fa0000000600cf
:020000040000fa
:1009a800f03fb1000180b10006003500ee030900f8
:1009b80000000000403fb1000180b100fbff3d0096
:1009c8001000b000203fb000020035000080090090
:0809d800000000000000060011
:020000040000fa
:1009e000001000002800000080000000000000004f
:020000040000fa
:02000004000af0
:04afe000ceff0000a0
:020000040000fa
:02000004000af0
:04afe400ffff00006b
:020000040000fa
:02000004000af0
:04afe8007fff0000e7
:020000040000fa
:02000004000af0
:04afec007aff0000e8
:020000040000fa
:02000004000af0
:04aff000f8ff000066
:020000040000fa
:02000004000af0
:04aff400ffff00005b
:00000001FF
